:100000000C942A000C9434000C9434000C943400AA
:100010000C9434000C9434000C9434000C94340090
:100020000C9434000C9434000C9434000C94340080
:100030000C9434000C9434000C9434000C94340070
:100040000C9434000C9434000C9434000C94340060
:100050000C94340011241FBECFE5D8E0DEBFCDBF25
:100060000E941E010C94E0040C94000081111BC03E
:10007000413059F42AB381E090E002C0880F991F03
:100080006A95E2F7822B8ABB0895411162C02AB3B8
:1000900081E090E002C0880F991F6A95E2F7809591
:1000A00082238ABB08958130D9F4413059F427B3B3
:1000B00081E090E002C0880F991F6A95E2F7822BD9
:1000C00087BB0895411145C027B381E090E002C08D
:1000D000880F991F6A95E2F78095822387BB089560
:1000E0008230D9F4413059F424B381E090E002C069
:1000F000880F991F6A95E2F7822B84BB08954111FE
:1001000028C024B381E090E002C0880F991F6A954F
:10011000E2F78095822384BB08958330D1F4413087
:1001200059F421B381E090E002C0880F991F6A95CD
:10013000E2F7822B81BB089541110BC021B381E00E
:1001400090E002C0880F991F6A95E2F7809582239C
:1001500081BB089581111BC0413059F42BB381E05C
:1001600090E002C0880F991F6A95E2F7822B8BBB43
:100170000895411162C02BB381E090E002C0880F66
:10018000991F6A95E2F7809582238BBB0895813091
:10019000D9F4413059F428B381E090E002C0880FCF
:1001A000991F6A95E2F7822B88BB0895411145C0DB
:1001B00028B381E090E002C0880F991F6A95E2F7AA
:1001C0008095822388BB08958230D9F4413059F458
:1001D00025B381E090E002C0880F991F6A95E2F78D
:1001E000822B85BB0895411128C025B381E090E0A2
:1001F00002C0880F991F6A95E2F78095822385BB1C
:1002000008958330D1F4413059F422B381E090E075
:1002100002C0880F991F6A95E2F7822B82BB08956E
:1002200041110BC022B381E090E002C0880F991FFA
:100230006A95E2F78095822382BB08958AB38F6026
:100240008ABB8BB3807F8BBB41E063E081E00E947F
:10025000360041E064E083E00E94360041E063E064
:1002600083E00E94360041E062E083E00E943600B5
:1002700041E065E083E00E94360041E067E083E012
:100280000E94360040E062E083E00E94AA0041E064
:1002900063E083E00E94AA000E94DF0160E875E24B
:1002A00080E090E00E94870260E070E080E090E4EF
:1002B0000E94370260E070E080E090E40E94490212
:1002C00060E070E080E090E40E945F0260E070E037
:1002D00080E090E40E947502C12CD12C76016894D4
:1002E000F6F80E94B502C82F853551F420E030E0C1
:1002F00040E651E4C701B6010E944C0488238CF704
:10030000C43451F420E030E040E450E4C701B601C9
:100310000E942A0318162CF7C53539F52DEC3CEC54
:100320004CE05FE3C701B6010E94BE026B017C0195
:1003300082E50E94B902C701B6010E943702C701D7
:10034000B6010E944902C701B6010E945F02C701BF
:10035000B6010E9475022FEF83ED90E3215080409B
:100360009040E1F700C00000BCCFC43409F0B9CF21
:100370002DEC3CEC4CE05FE3C701B6010E94BD02EE
:100380006B017C0182E50E94B902C701B6010E949F
:100390003702C701B6010E944902C701B6010E9497
:1003A0005F02C701B6010E9475022FEF83ED90E353
:1003B000215080409040E1F700C0000092CF83B709
:1003C0008F7783BF83B7806483BF83B7886083BF21
:1003D00083B7806183BF83B7806283BF83B7816047
:1003E00083BF83B7846083BF83B78D7F83BF8FB59F
:1003F00080648FBD8FB580688FBD8FB580628FBDE3
:100400008FB580618FBD8FB5877F8FBD8FB58B7F97
:100410008FBD8FB58D7F8FBD8FB581608FBD8EB540
:100420008F7E8EBD8EB588608EBD8EB581608EBD8F
:100430008EB58D7F8EBD8EB584608EBD85B58F7770
:1004400085BD85B5806485BD85B5886085BD85B56C
:10045000806285BD85B5806185BD85B5846085BDBB
:1004600085B5826085BD85B5816085BD089512BE64
:1004700020E030E048EC52E40E942F0320E030E01E
:1004800040E853E40E9451040E94A80361956CBFA8
:10049000089520E030E048EC52E40E942F0320E071
:1004A00030E040E853E40E9451040E94A10320E0A0
:1004B00031E0C901861B970B9BBD8ABD089520E0E2
:1004C00030E048EC52E40E942F0320E030E040E8A6
:1004D00053E40E9451040E94A10320E031E0C901CD
:1004E000861B970B99BD88BD089514BC20E030E0B1
:1004F00048EC52E40E942F0320E030E040E853E44F
:100500000E9451040E94A803619563BD08952AB119
:1005100028612AB920B5266820BDDC01CB01880FEF
:10052000991FAA1FBB1F880F991FAA1FBB1F9C01E1
:10053000AD01220F331F441F551F220F331F441FCD
:10054000551F60E074E284EF90E00E94BE048FEFDC
:10055000820F89B9DA01C9010197A109B109892F6F
:100560009A2FAB2FBB2780BD08955F9BFECF8CB128
:1005700008958CB95D9BFECF08955058BB27AA27DC
:100580000E94D5020C9412040E94040438F00E94C8
:100590000B0420F039F49F3F19F426F40C94010465
:1005A0000EF4E095E7FB0C94FB03E92F0E94230473
:1005B00058F3BA17620773078407950720F079F498
:1005C000A6F50C9445040EF4E0950B2EBA2FA02D41
:1005D0000B01B90190010C01CA01A0011124FF27F0
:1005E000591B99F0593F50F4503E68F11A16F040EB
:1005F000A22F232F342F4427585FF3CF46953795EA
:100600002795A795F0405395C9F77EF41F16BA0BAE
:10061000620B730B840BBAF09150A1F0FF0FBB1F5C
:10062000661F771F881FC2F70EC0BA0F621F731FA5
:10063000841F48F4879577956795B795F7959E3F02
:1006400008F0B0CF9395880F08F09927EE0F979593
:10065000879508950E94D70308F481E008950E94C9
:1006600043030C9412040E940B0458F00E940404EB
:1006700040F029F45F3F29F00C94FB0351110C94D6
:1006800046040C9401040E94230468F39923B1F3F7
:10069000552391F3951B550BBB27AA2762177307A8
:1006A000840738F09F5F5F4F220F331F441FAA1F3C
:1006B000A9F335D00E2E3AF0E0E832D091505040F8
:1006C000E695001CCAF72BD0FE2F29D0660F771FA6
:1006D000881FBB1F261737074807AB07B0E809F08C
:1006E000BB0B802DBF01FF2793585F4F3AF09E3F11
:1006F000510578F00C94FB030C9446045F3FE4F33F
:10070000983ED4F3869577956795B795F7959F5F53
:10071000C9F7880F911D9695879597F90895E1E09F
:10072000660F771F881FBB1F621773078407BA07FE
:1007300020F0621B730B840BBA0BEE1F88F7E09559
:1007400008950E94A8036894B1110C94460408957A
:100750000E942B0488F09F5798F0B92F9927B75122
:10076000B0F0E1F0660F771F881F991F1AF0BA9555
:10077000C9F714C0B13091F00E944504B1E008956A
:100780000C944504672F782F8827B85F39F0B93F5C
:10079000CCF3869577956795B395D9F73EF4909508
:1007A0008095709561957F4F8F4F9F4F0895990F5A
:1007B0000008550FAA0BE0E8FEEF16161706E8072B
:1007C000F907C0F012161306E407F50798F0621B4C
:1007D000730B840B950B39F40A2661F0232B242B21
:1007E000252B21F408950A2609F4A140A6958FEF40
:1007F000811D811D089597F99F6780E870E060E092
:1008000008959FEF80EC089500240A9416161706A9
:1008100018060906089500240A94121613061406F1
:1008200005060895092E0394000C11F4882352F054
:10083000BB0F40F4BF2B11F460FF04C06F5F7F4F0C
:100840008F4F9F4F089557FD9058440F551F59F0F3
:100850005F3F71F04795880F97FB991F61F09F3FAD
:1008600079F087950895121613061406551FF2CFD6
:100870004695F1DF08C0161617061806991FF1CF26
:1008800086957105610508940895E894BB2766274D
:100890007727CB0197F908950E94D70308F48FEFCB
:1008A00008950E9464040C9412040E94040438F019
:1008B0000E940B0420F0952311F00C94FB030C9480
:1008C000010411240C9446040E94230470F3959FA4
:1008D000C1F3950F50E0551F629FF001729FBB2737
:1008E000F00DB11D639FAA27F00DB11DAA1F649FD3
:1008F0006627B00DA11D661F829F2227B00DA11D86
:10090000621F739FB00DA11D621F839FA00D611D0B
:10091000221F749F3327A00D611D231F849F600D2C
:10092000211D822F762F6A2F11249F5750409AF055
:10093000F1F088234AF0EE0FFF1FBB1F661F771FE1
:10094000881F91505040A9F79E3F510580F00C94AC
:10095000FB030C9446045F3FE4F3983ED4F3869582
:1009600077956795B795F795E7959F5FC1F7FE2B4C
:10097000880F911D9695879597F90895A1E21A2EF3
:10098000AA1BBB1BFD010DC0AA1FBB1FEE1FFF1F33
:10099000A217B307E407F50720F0A21BB30BE40B83
:1009A000F50B661F771F881F991F1A9469F76095CA
:1009B0007095809590959B01AC01BD01CF01089584
:0409C000F894FFCFD9
:00000001FF
