S01700004763634170706C69636174696F6E322E737265635A
S11300000C942A000C9434000C9434000C943400A6
S11300100C9434000C9434000C9434000C9434008C
S11300200C9434000C9434000C9434000C9434007C
S11300300C9434000C9434000C9434000C9434006C
S11300400C9434000C9434000C9434000C9434005C
S11300500C94340011241FBECFE5D8E0DEBFCDBF21
S11300600E94AA000C94FE020C94000081111BC093
S1130070413059F42AB381E090E002C0880F991FFF
S11300806A95E2F7822B8ABB0895411162C02AB3B4
S113009081E090E002C0880F991F6A95E2F780958D
S11300A082238ABB08958130D9F4413059F427B3AF
S11300B081E090E002C0880F991F6A95E2F7822BD5
S11300C087BB0895411145C027B381E090E002C089
S11300D0880F991F6A95E2F78095822387BB08955C
S11300E08230D9F4413059F424B381E090E002C065
S11300F0880F991F6A95E2F7822B84BB08954111FA
S113010028C024B381E090E002C0880F991F6A954B
S1130110E2F78095822384BB08958330D1F4413083
S113012059F421B381E090E002C0880F991F6A95C9
S1130130E2F7822B81BB089541110BC021B381E00A
S113014090E002C0880F991F6A95E2F78095822398
S113015081BB089541E063E081E00E94360041E004
S113016064E083E00E94360041E065E083E00E94A1
S1130170360041E067E083E00E9436000E94E1001F
S113018080E895E20E9489010E9490010197E1F7BD
S113019060E070E080E291E40E94390160E070E088
S11301A088E492E40E944B0160E070E088E492E409
S11301B00E94610160E070E084EB92E40E947701A8
S11301C0E3CF83B78F7783BF83B7806483BF83B75D
S11301D0886083BF83B7806183BF83B7806283BF36
S11301E083B7816083BF83B7846083BF83B78D7F08
S11301F083BF8FB580648FBD8FB580688FBD8FB589
S113020080628FBD8FB580618FBD8FB5877F8FBDB5
S11302108FB58B7F8FBD8FB58D7F8FBD8FB581607F
S11302208FBD8EB58F7E8EBD8EB588608EBD8EB52A
S113023081608EBD8EB58D7F8EBD8EB584608EBD82
S113024085B58F7785BD85B5806485BD85B58860A6
S113025085BD85B5806285BD85B5806185BD85B563
S1130260846085BD85B5826085BD85B5816085BDA9
S1130270089512BE20E030E048EC52E40E94980158
S113028020E030E040E853E40E9491020E94110211
S113029061956CBF089520E030E048EC52E40E9480
S11302A0980120E030E040E853E40E9491020E946B
S11302B00A0220E031E0C901861B970B9BBD8ABD71
S11302C0089520E030E048EC52E40E94980120E0D8
S11302D030E040E853E40E9491020E940A0220E0C8
S11302E031E0C901861B970B99BD88BD089514BCE4
S11302F020E030E048EC52E40E94980120E030E035
S113030040E853E40E9491020E941102619563BD8A
S1130310089590BD89B988E18AB98EE880BD0895B1
S11303205F9BFECF8BB18AB18CB18FEF9FEF0895A5
S11303300E94AC010C9457020E94500258F00E9493
S1130340490240F029F45F3F29F00C944002511116
S11303500C948B020C9446020E94680268F3992361
S1130360B1F3552391F3951B550BBB27AA276217AD
S11303707307840738F09F5F5F4F220F331F441FBA
S1130380AA1FA9F335D00E2E3AF0E0E832D09150EE
S11303905040E695001CCAF72BD0FE2F29D0660FDB
S11303A0771F881FBB1F261737074807AB07B0E81E
S11303B009F0BB0B802DBF01FF2793585F4F3AF024
S11303C09E3F510578F00C9440020C948B025F3FE1
S11303D0E4F3983ED4F3869577956795B795F795AA
S11303E09F5FC9F7880F911D9695879597F9089592
S11303F0E1E0660F771F881FBB1F6217730784072E
S1130400BA0720F0621B730B840BBA0BEE1F88F73C
S1130410E09508950E9411026894B1110C948B0226
S113042008950E94700288F09F5798F0B92F992779
S1130430B751B0F0E1F0660F771F881F991F1AF0CB
S1130440BA95C9F714C0B13091F00E948A02B1E0A4
S113045008950C948A02672F782F8827B85F39F0A3
S1130460B93FCCF3869577956795B395D9F73EF464
S113047090958095709561957F4F8F4F9F4F08950C
S113048097F99F6780E870E060E008959FEF80EC43
S1130490089500240A9416161706180609060895E6
S11304A000240A9412161306140605060895092E4C
S11304B00394000C11F4882352F0BB0F40F4BF2BBB
S11304C011F460FF04C06F5F7F4F8F4F9F4F0895FB
S11304D057FD9058440F551F59F05F3F71F04795F1
S11304E0880F97FB991F61F09F3F79F087950895D6
S11304F0121613061406551FF2CF4695F1DF08C0F5
S1130500161617061806991FF1CF86957105610511
S113051008940895E894BB2766277727CB0197F9B9
S113052008950E94A4020C9457020E94490238F0D4
S11305300E94500220F0952311F00C9440020C9478
S1130540460211240C948B020E94680270F3959F5A
S1130550C1F3950F50E0551F629FF001729FBB27B6
S1130560F00DB11D639FAA27F00DB11DAA1F649F52
S11305706627B00DA11D661F829F2227B00DA11D05
S1130580621F739FB00DA11D621F839FA00D611D8B
S1130590221F749F3327A00D611D231F849F600DAC
S11305A0211D822F762F6A2F11249F5750409AF0D5
S11305B0F1F088234AF0EE0FFF1FBB1F661F771F61
S11305C0881F91505040A9F79E3F510580F00C942C
S11305D040020C948B025F3FE4F3983ED4F386957B
S11305E077956795B795F795E7959F5FC1F7FE2BCC
S11305F0880F911D9695879597F90895F894FFCFE4
S9030000FC
