:100000000C942A000C9434000C9434000C943400AA
:100010000C9434000C9434000C9434000C94340090
:100020000C9434000C9434000C9434000C94340080
:100030000C9434000C9434000C9434000C94340070
:100040000C9434000C9434000C9434000C94340060
:100050000C94340011241FBECFE5D8E0DEBFCDBF25
:100060000E94AA000C9408030C94000081111BC08C
:10007000413059F42AB381E090E002C0880F991F03
:100080006A95E2F7822B8ABB0895411162C02AB3B8
:1000900081E090E002C0880F991F6A95E2F7809591
:1000A00082238ABB08958130D9F4413059F427B3B3
:1000B00081E090E002C0880F991F6A95E2F7822BD9
:1000C00087BB0895411145C027B381E090E002C08D
:1000D000880F991F6A95E2F78095822387BB089560
:1000E0008230D9F4413059F424B381E090E002C069
:1000F000880F991F6A95E2F7822B84BB08954111FE
:1001000028C024B381E090E002C0880F991F6A954F
:10011000E2F78095822384BB08958330D1F4413087
:1001200059F421B381E090E002C0880F991F6A95CD
:10013000E2F7822B81BB089541110BC021B381E00E
:1001400090E002C0880F991F6A95E2F7809582239C
:1001500081BB089541E063E081E00E94360041E008
:1001600064E083E00E94360041E065E083E00E94A5
:10017000360041E067E083E00E94360040E060E046
:1001800083E00E94360041E061E083E00E94360097
:100190000E94EB0080E895E20E9493010E949A0180
:1001A0000197E1F760E070E080E291E40E94430192
:1001B00060E070E088E492E40E94550160E070E045
:1001C00088E492E40E946B0160E070E084EB92E4CA
:1001D0000E948101E3CF83B78F7783BF83B78064A9
:1001E00083BF83B7886083BF83B7806183BF83B7D2
:1001F000806283BF83B7816083BF83B7846083BF1E
:1002000083B78D7F83BF8FB580648FBD8FB58068C6
:100210008FBD8FB580628FBD8FB580618FBD8FB56B
:10022000877F8FBD8FB58B7F8FBD8FB58D7F8FBD46
:100230008FB581608FBD8EB58F7E8EBD8EB5886087
:100240008EBD8EB581608EBD8EB58D7F8EBD8EB517
:1002500084608EBD85B58F7785BD85B5806485BD8D
:1002600085B5886085BD85B5806285BD85B58061B1
:1002700085BD85B5846085BD85B5826085BD85B544
:10028000816085BD089512BE20E030E048EC52E464
:100290000E94A20120E030E040E853E40E949B026B
:1002A0000E941B0261956CBF089520E030E048EC8D
:1002B00052E40E94A20120E030E040E853E40E94B2
:1002C0009B020E94140220E031E0C901861B970BBB
:1002D0009BBD8ABD089520E030E048EC52E40E94C6
:1002E000A20120E030E040E853E40E949B020E941B
:1002F000140220E031E0C901861B970B99BD88BD2F
:10030000089514BC20E030E048EC52E40E94A201C1
:1003100020E030E040E853E40E949B020E941B0270
:10032000619563BD089590BD89B988E18AB98EE869
:1003300080BD08955F9BFECF8BB18AB18CB18FEFEA
:100340009FEF08950E94B6010C9461020E945A0228
:1003500058F00E94530240F029F45F3F29F00C94BA
:100360004A0251110C9495020C9450020E947202A0
:1003700068F39923B1F3552391F3951B550BBB27D4
:10038000AA2762177307840738F09F5F5F4F220F19
:10039000331F441FAA1FA9F335D00E2E3AF0E0E810
:1003A00032D091505040E695001CCAF72BD0FE2F5A
:1003B00029D0660F771F881FBB1F261737074807EE
:1003C000AB07B0E809F0BB0B802DBF01FF279358A6
:1003D0005F4F3AF09E3F510578F00C944A020C941E
:1003E00095025F3FE4F3983ED4F386957795679541
:1003F000B795F7959F5FC9F7880F911D96958795DB
:1004000097F90895E1E0660F771F881FBB1F6217F9
:1004100073078407BA0720F0621B730B840BBA0BB7
:10042000EE1F88F7E09508950E941B026894B111B1
:100430000C94950208950E947A0288F09F5798F0D4
:10044000B92F9927B751B0F0E1F0660F771F881FD9
:10045000991F1AF0BA95C9F714C0B13091F00E94F3
:100460009402B1E008950C949402672F782F8827A6
:10047000B85F39F0B93FCCF3869577956795B3951A
:10048000D9F73EF490958095709561957F4F8F4F89
:100490009F4F089597F99F6780E870E060E00895A6
:1004A0009FEF80EC089500240A941616170618068C
:1004B0000906089500240A94121613061406050668
:1004C0000895092E0394000C11F4882352F0BB0FF9
:1004D00040F4BF2B11F460FF04C06F5F7F4F8F4F5C
:1004E0009F4F089557FD9058440F551F59F05F3F97
:1004F00071F04795880F97FB991F61F09F3F79F046
:1005000087950895121613061406551FF2CF4695C7
:10051000F1DF08C0161617061806991FF1CF869549
:100520007105610508940895E894BB27662777272D
:10053000CB0197F908950E94AE020C9461020E94CB
:10054000530238F00E945A0220F0952311F00C94C7
:100550004A020C94500211240C9495020E947202DB
:1005600070F3959FC1F3950F50E0551F629FF00106
:10057000729FBB27F00DB11D639FAA27F00DB11D1F
:10058000AA1F649F6627B00DA11D661F829F2227A8
:10059000B00DA11D621F739FB00DA11D621F839F2F
:1005A000A00D611D221F749F3327A00D611D231F05
:1005B000849F600D211D822F762F6A2F11249F5753
:1005C00050409AF0F1F088234AF0EE0FFF1FBB1F56
:1005D000661F771F881F91505040A9F79E3F510515
:1005E00080F00C944A020C9495025F3FE4F3983E2D
:1005F000D4F3869577956795B795F795E7959F5FBF
:10060000C1F7FE2B880F911D9695879597F9089550
:04061000F894FFCF8C
:00000001FF
