S01700004763634170706C69636174696F6E322E737265635A
S11300000C942A000C9434000C9434000C943400A6
S11300100C9434000C9434000C9434000C9434008C
S11300200C9434000C9434000C9434000C9434007C
S11300300C9434000C9434000C9434000C9434006C
S11300400C9434000C9434000C9434000C9434005C
S11300500C94340011241FBECFE5D8E0DEBFCDBF21
S11300600E941E010C946F030C94000081111BC0AC
S1130070413059F42AB381E090E002C0880F991FFF
S11300806A95E2F7822B8ABB0895411162C02AB3B4
S113009081E090E002C0880F991F6A95E2F780958D
S11300A082238ABB08958130D9F4413059F427B3AF
S11300B081E090E002C0880F991F6A95E2F7822BD5
S11300C087BB0895411145C027B381E090E002C089
S11300D0880F991F6A95E2F78095822387BB08955C
S11300E08230D9F4413059F424B381E090E002C065
S11300F0880F991F6A95E2F7822B84BB08954111FA
S113010028C024B381E090E002C0880F991F6A954B
S1130110E2F78095822384BB08958330D1F4413083
S113012059F421B381E090E002C0880F991F6A95C9
S1130130E2F7822B81BB089541110BC021B381E00A
S113014090E002C0880F991F6A95E2F78095822398
S113015081BB089581111BC0413059F42BB381E058
S113016090E002C0880F991F6A95E2F7822B8BBB3F
S11301700895411162C02BB381E090E002C0880F62
S1130180991F6A95E2F7809582238BBB089581308D
S1130190D9F4413059F428B381E090E002C0880FCB
S11301A0991F6A95E2F7822B88BB0895411145C0D7
S11301B028B381E090E002C0880F991F6A95E2F7A6
S11301C08095822388BB08958230D9F4413059F454
S11301D025B381E090E002C0880F991F6A95E2F789
S11301E0822B85BB0895411128C025B381E090E09E
S11301F002C0880F991F6A95E2F78095822385BB18
S113020008958330D1F4413059F422B381E090E071
S113021002C0880F991F6A95E2F7822B82BB08956A
S113022041110BC022B381E090E002C0880F991FF6
S11302306A95E2F78095822382BB08958AB38F6022
S11302408ABB8BB3807F8BBB41E063E081E00E947B
S1130250360041E064E083E00E94360041E063E060
S113026083E00E94360041E062E083E00E943600B1
S113027041E065E083E00E94360041E067E083E00E
S11302800E94360040E062E083E00E94AA0041E060
S113029063E083E00E94AA000E945B010E94C50102
S11302A00E94CF01682F70E080E090E00E94740209
S11302B00E94B301F5CF83B78F7783BF83B7806480
S11302C083BF83B7886083BF83B7806183BF83B7ED
S11302D0806283BF83B7816083BF83B7846083BF39
S11302E083B78D7F83BF8FB580648FBD8FB58068E2
S11302F08FBD8FB580628FBD8FB580618FBD8FB587
S1130300877F8FBD8FB58B7F8FBD8FB58D7F8FBD61
S11303108FB581608FBD8EB58F7E8EBD8EB58860A2
S11303208EBD8EB581608EBD8EB58D7F8EBD8EB532
S113033084608EBD85B58F7785BD85B5806485BDA8
S113034085B5886085BD85B5806285BD85B58061CC
S113035085BD85B5846085BD85B5826085BD85B55F
S1130360816085BD089512BE20E030E048EC52E47F
S11303700E94D30120E030E040E853E40E940203ED
S11303800E94450261956CBF089582E08BB988E1B3
S11303908AB986E880BD10BC8CE089B908955F9B5A
S11303A0FECF8CB108950E94E7010C94C8020E940C
S11303B0C10258F00E94BA0240F029F45F3F29F0CC
S11303C00C94B10251110C94FC020C94B7020E94DB
S11303D0D90268F39923B1F3552391F3951B550B77
S11303E0BB27AA2762177307840738F09F5F5F4F04
S11303F0220F331F441FAA1FA9F335D00E2E3AF043
S1130400E0E832D091505040E695001CCAF72BD05A
S1130410FE2F29D0660F771F881FBB1F26173707AB
S11304204807AB07B0E809F0BB0B802DBF01FF27DD
S113043093585F4F3AF09E3F510578F00C94B10207
S11304400C94FC025F3FE4F3983ED4F386957795D1
S11304506795B795F7959F5FC9F7880F911D969596
S1130460879597F90895E1E0660F771F881FBB1FF2
S1130470621773078407BA0720F0621B730B840B9F
S1130480BA0BEE1F88F7E09508950E94E10288F008
S11304909F5798F0B92F9927B751B0F0E1F0660F44
S11304A0771F881F991F1AF0BA95C9F714C0B13085
S11304B091F00E94FB02B1E008950C94FB02672FB7
S11304C0782F8827B85F39F0B93FCCF386957795B4
S11304D06795B395D9F73EF490958095709561959D
S11304E07F4F8F4F9F4F0895E89409C097FB3EF4C8
S11304F090958095709561957F4F8F4F9F4F99236D
S1130500A9F0F92F96E9BB279395F69587957795EA
S11305106795B795F111F8CFFAF4BB0F11F460FFAA
S11305201BC06F5F7F4F8F4F9F4F16C0882311F002
S113053096E911C0772321F09EE8872F762F05C016
S1130540662371F096E8862F70E060E02AF09A95B1
S1130550660F771F881FDAF7880F9695879597F9A6
S1130560089597F99F6780E870E060E008959FEF31
S113057080EC089500240A94161617061806090636
S1130580089500240A941216130614060506089505
S1130590092E0394000C11F4882352F0BB0F40F48D
S11305A0BF2B11F460FF04C06F5F7F4F8F4F9F4FCD
S11305B0089557FD9058440F551F59F05F3F71F04F
S11305C04795880F97FB991F61F09F3F79F08795B6
S11305D00895121613061406551FF2CF4695F1DF3F
S11305E008C0161617061806991FF1CF86957105CF
S11305F0610508940895E894BB2766277727CB0103
S113060097F908950E9415030C94C8020E94BA0237
S113061038F00E94C10220F0952311F00C94B1022D
S11306200C94B70211240C94FC020E94D90270F3BA
S1130630959FC1F3950F50E0551F629FF001729F83
S1130640BB27F00DB11D639FAA27F00DB11DAA1F92
S1130650649F6627B00DA11D661F829F2227B00DDF
S1130660A11D621F739FB00DA11D621F839FA00D6A
S1130670611D221F749F3327A00D611D231F849FBA
S1130680600D211D822F762F6A2F11249F57504011
S11306909AF0F1F088234AF0EE0FFF1FBB1F661F8C
S11306A0771F881F91505040A9F79E3F510580F055
S11306B00C94B1020C94FC025F3FE4F3983ED4F333
S11306C0869577956795B795F795E7959F5FC1F7F9
S11306D0FE2B880F911D9695879597F90895F894A8
S10506E0FFCF46
S9030000FC
